{
  "contractName": "SimpleBank",
  "abi": [
    {
      "constant": true,
      "inputs": [
        {
          "name": "",
          "type": "address"
        }
      ],
      "name": "enrolled",
      "outputs": [
        {
          "name": "",
          "type": "bool"
        }
      ],
      "payable": false,
      "stateMutability": "view",
      "type": "function"
    },
    {
      "constant": true,
      "inputs": [],
      "name": "owner",
      "outputs": [
        {
          "name": "",
          "type": "address"
        }
      ],
      "payable": false,
      "stateMutability": "view",
      "type": "function"
    },
    {
      "inputs": [],
      "payable": false,
      "stateMutability": "nonpayable",
      "type": "constructor"
    },
    {
      "payable": false,
      "stateMutability": "nonpayable",
      "type": "fallback"
    },
    {
      "anonymous": false,
      "inputs": [
        {
          "indexed": false,
          "name": "accountAddress",
          "type": "address"
        }
      ],
      "name": "LogEnrolled",
      "type": "event"
    },
    {
      "anonymous": false,
      "inputs": [
        {
          "indexed": false,
          "name": "accountAddress",
          "type": "address"
        },
        {
          "indexed": false,
          "name": "amount",
          "type": "uint256"
        }
      ],
      "name": "LogDepositMade",
      "type": "event"
    },
    {
      "anonymous": false,
      "inputs": [
        {
          "indexed": false,
          "name": "accountAddress",
          "type": "address"
        },
        {
          "indexed": false,
          "name": "withdrawalAmount",
          "type": "uint256"
        },
        {
          "indexed": false,
          "name": "newBalance",
          "type": "uint256"
        }
      ],
      "name": "LogWithdrawal",
      "type": "event"
    },
    {
      "constant": false,
      "inputs": [],
      "name": "enroll",
      "outputs": [
        {
          "name": "",
          "type": "bool"
        }
      ],
      "payable": false,
      "stateMutability": "nonpayable",
      "type": "function"
    },
    {
      "constant": false,
      "inputs": [],
      "name": "deposit",
      "outputs": [
        {
          "name": "",
          "type": "uint256"
        }
      ],
      "payable": true,
      "stateMutability": "payable",
      "type": "function"
    },
    {
      "constant": false,
      "inputs": [
        {
          "name": "withdrawAmount",
          "type": "uint256"
        }
      ],
      "name": "withdraw",
      "outputs": [
        {
          "name": "",
          "type": "uint256"
        }
      ],
      "payable": false,
      "stateMutability": "nonpayable",
      "type": "function"
    },
    {
      "constant": true,
      "inputs": [],
      "name": "balance",
      "outputs": [
        {
          "name": "",
          "type": "uint256"
        }
      ],
      "payable": false,
      "stateMutability": "view",
      "type": "function"
    }
  ],
  "bytecode": "0x608060405234801561001057600080fd5b5033600260006101000a81548173ffffffffffffffffffffffffffffffffffffffff021916908373ffffffffffffffffffffffffffffffffffffffff16021790555061061b806100616000396000f300608060405260043610610078576000357c0100000000000000000000000000000000000000000000000000000000900463ffffffff16806310eb0e0e1461008a5780632e1a7d4d146100e55780638da5cb5b14610126578063b69ef8a81461017d578063d0e30db0146101a8578063e65f2a7e146101c6575b34801561008457600080fd5b50600080fd5b34801561009657600080fd5b506100cb600480360381019080803573ffffffffffffffffffffffffffffffffffffffff1690602001909291905050506101f5565b604051808215151515815260200191505060405180910390f35b3480156100f157600080fd5b5061011060048036038101908080359060200190929190505050610215565b6040518082815260200191505060405180910390f35b34801561013257600080fd5b5061013b6103af565b604051808273ffffffffffffffffffffffffffffffffffffffff1673ffffffffffffffffffffffffffffffffffffffff16815260200191505060405180910390f35b34801561018957600080fd5b506101926103d5565b6040518082815260200191505060405180910390f35b6101b061041b565b6040518082815260200191505060405180910390f35b3480156101d257600080fd5b506101db6104e1565b604051808215151515815260200191505060405180910390f35b60016020528060005260406000206000915054906101000a900460ff1681565b6000816000803373ffffffffffffffffffffffffffffffffffffffff1673ffffffffffffffffffffffffffffffffffffffff16815260200190815260200160002054101561026257600080fd5b3373ffffffffffffffffffffffffffffffffffffffff166108fc839081150290604051600060405180830381858888f193505050501580156102a8573d6000803e3d6000fd5b50816000803373ffffffffffffffffffffffffffffffffffffffff1673ffffffffffffffffffffffffffffffffffffffff168152602001908152602001600020600082825403925050819055507ff9226daf630542048a23086c6af599511aac100ec8f532793cc9697d061bed7e33836000803373ffffffffffffffffffffffffffffffffffffffff1673ffffffffffffffffffffffffffffffffffffffff16815260200190815260200160002054604051808473ffffffffffffffffffffffffffffffffffffffff1673ffffffffffffffffffffffffffffffffffffffff168152602001838152602001828152602001935050505060405180910390a160029050919050565b600260009054906101000a900473ffffffffffffffffffffffffffffffffffffffff1681565b60008060003373ffffffffffffffffffffffffffffffffffffffff1673ffffffffffffffffffffffffffffffffffffffff16815260200190815260200160002054905090565b6000346000803373ffffffffffffffffffffffffffffffffffffffff1673ffffffffffffffffffffffffffffffffffffffff168152602001908152602001600020600082825401925050819055507fa8126f7572bb1fdeae5b5aa9ec126438b91f658a07873f009d041ae690f3a1933334604051808373ffffffffffffffffffffffffffffffffffffffff1673ffffffffffffffffffffffffffffffffffffffff1681526020018281526020019250505060405180910390a16104dc6103d5565b905090565b600060018060003373ffffffffffffffffffffffffffffffffffffffff1673ffffffffffffffffffffffffffffffffffffffff16815260200190815260200160002060006101000a81548160ff0219169083151502179055507f990c442e6adb818b8fa7db3cf1023decd07f7b66e5306928c7ed527d974192bb33604051808273ffffffffffffffffffffffffffffffffffffffff1673ffffffffffffffffffffffffffffffffffffffff16815260200191505060405180910390a1600160003373ffffffffffffffffffffffffffffffffffffffff1673ffffffffffffffffffffffffffffffffffffffff16815260200190815260200160002060009054906101000a900460ff169050905600a165627a7a723058204de86154a24d10fdb4811770bd7d24f939cc0f30108a87443fd450a8ef888c540029",
  "source": "pragma solidity ^0.4.13;\ncontract SimpleBank {\n\n    /* Fill in the keyword. Hint: We want to protect our users balance from other contracts*/\n    mapping (address => uint) private balances;\n    \n    /* Fill in the keyword. We want to create a getter function and allow contracts to be able to see if a user is enrolled.  */\n    mapping (address => bool) public enrolled;\n\n    /* Let's make sure everyone knows who owns the bank. Use the appropriate keyword for this*/\n    address public owner;\n\n    // Events - publicize actions to external listeners\n    \n    /* Add an argument for this event, an accountAddress */\n    event LogEnrolled(address accountAddress);\n\n    /* Add 2 arguments for this event, an accountAddress and an amount */\n    event LogDepositMade(address accountAddress, uint amount);\n\n    /* Create an event called LogWithdrawal */\n    /* Add 3 arguments for this event, an accountAddress, withdrawalAmount and a newBalance */\n    event LogWithdrawal(address accountAddress, uint withdrawalAmount, uint newBalance);\n\n    // Constructor, can receive one or many variables here; only one allowed\n    constructor() public {\n        /* Set the owner to the creator of this contract */\n        owner = msg.sender;\n    }\n\n    /// @notice Enroll a customer with the bank\n    /// @return The users enrolled status\n    // Log the appropriate event\n    function enroll() public returns (bool){\n\n        enrolled[msg.sender] = true;\n        \n        emit LogEnrolled(msg.sender);\n\n        return enrolled[msg.sender];\n    }\n\n    /// @notice Deposit ether into bank\n    /// @return The balance of the user after the deposit is made\n    // Add the appropriate keyword so that this function can receive ether\n    function deposit() public payable returns (uint) {\n        \n        balances[msg.sender] += msg.value;\n        \n        emit LogDepositMade(msg.sender, msg.value);\n        \n        return balance();\n        /* Add the amount to the user's balance, call the event associated with a deposit,\n          then return the balance of the user */\n    }\n\n    /// @notice Withdraw ether from bank\n    /// @dev This does not return any excess ether sent to it\n    /// @param withdrawAmount amount you want to withdraw\n    /// @return The balance remaining for the user\n    function withdraw(uint withdrawAmount) public returns (uint) {\n        \n        if(balances[msg.sender] < withdrawAmount) revert();\n\n        msg.sender.transfer(withdrawAmount);\n\n        balances[msg.sender] -= withdrawAmount;\n\n        emit LogWithdrawal(msg.sender, withdrawAmount, balances[msg.sender]);\n\n        return 2;\n\n        /* If the sender's balance is at least the amount they want to withdraw,\n           Subtract the amount from the sender's balance, and try to send that amount of ether\n           to the user attempting to withdraw. IF the send fails, add the amount back to the user's balance\n           return the user's balance.*/\n    }\n\n    /// @notice Get balance\n    /// @return The balance of the user\n    // A SPECIAL KEYWORD prevents function from editing state variables;\n    // allows function to run locally/off blockchain\n\n    // pure ?\n    function balance() public constant returns (uint) {\n        /* Get the balance of the sender of this transaction */\n        return balances[msg.sender];\n    }\n\n    // Fallback function - Called if other functions don't match call or\n    // sent ether without data\n    // Typically, called when invalid data is sent\n    // Added so ether sent to this contract is reverted if the contract fails\n    // otherwise, the sender's money is transferred to contract\n    function() public {\n        revert();\n    }\n}\n",
  "sourcePath": "/Users/serknight/code/eth/simple_bank/contracts/SimpleBank.sol",
  "compiler": {
    "name": "solc",
    "version": "0.4.24+commit.e67f0147.Emscripten.clang"
  },
  "schemaVersion": "2.0.0",
  "updatedAt": "2018-07-24T05:07:04.949Z"
}