{
  "contractName": "SimpleBank",
  "abi": [
    {
      "constant": true,
      "inputs": [
        {
          "name": "",
          "type": "address"
        }
      ],
      "name": "enrolled",
      "outputs": [
        {
          "name": "",
          "type": "bool"
        }
      ],
      "payable": false,
      "stateMutability": "view",
      "type": "function"
    },
    {
      "constant": true,
      "inputs": [],
      "name": "owner",
      "outputs": [
        {
          "name": "",
          "type": "address"
        }
      ],
      "payable": false,
      "stateMutability": "view",
      "type": "function"
    },
    {
      "inputs": [],
      "payable": false,
      "stateMutability": "nonpayable",
      "type": "constructor"
    },
    {
      "payable": false,
      "stateMutability": "nonpayable",
      "type": "fallback"
    },
    {
      "anonymous": false,
      "inputs": [
        {
          "indexed": false,
          "name": "accountAddress",
          "type": "address"
        }
      ],
      "name": "LogEnrolled",
      "type": "event"
    },
    {
      "anonymous": false,
      "inputs": [
        {
          "indexed": false,
          "name": "accountAddress",
          "type": "address"
        },
        {
          "indexed": false,
          "name": "amount",
          "type": "uint256"
        }
      ],
      "name": "LogDepositMade",
      "type": "event"
    },
    {
      "anonymous": false,
      "inputs": [
        {
          "indexed": false,
          "name": "accountAddress",
          "type": "address"
        },
        {
          "indexed": false,
          "name": "withdrawalAmount",
          "type": "uint256"
        },
        {
          "indexed": false,
          "name": "newBalance",
          "type": "uint256"
        }
      ],
      "name": "LogWithdrawal",
      "type": "event"
    },
    {
      "constant": false,
      "inputs": [],
      "name": "enroll",
      "outputs": [
        {
          "name": "",
          "type": "bool"
        }
      ],
      "payable": false,
      "stateMutability": "nonpayable",
      "type": "function"
    },
    {
      "constant": false,
      "inputs": [],
      "name": "deposit",
      "outputs": [
        {
          "name": "",
          "type": "uint256"
        }
      ],
      "payable": true,
      "stateMutability": "payable",
      "type": "function"
    },
    {
      "constant": false,
      "inputs": [
        {
          "name": "withdrawalAmount",
          "type": "uint256"
        }
      ],
      "name": "withdraw",
      "outputs": [
        {
          "name": "remainingBal",
          "type": "uint256"
        }
      ],
      "payable": false,
      "stateMutability": "nonpayable",
      "type": "function"
    },
    {
      "constant": true,
      "inputs": [],
      "name": "balance",
      "outputs": [
        {
          "name": "",
          "type": "uint256"
        }
      ],
      "payable": false,
      "stateMutability": "view",
      "type": "function"
    }
  ],
  "bytecode": "0x608060405234801561001057600080fd5b5033600260006101000a81548173ffffffffffffffffffffffffffffffffffffffff021916908373ffffffffffffffffffffffffffffffffffffffff16021790555061068f806100616000396000f300608060405260043610610078576000357c0100000000000000000000000000000000000000000000000000000000900463ffffffff16806310eb0e0e1461008a5780632e1a7d4d146100e55780638da5cb5b14610126578063b69ef8a81461017d578063d0e30db0146101a8578063e65f2a7e146101c6575b34801561008457600080fd5b50600080fd5b34801561009657600080fd5b506100cb600480360381019080803573ffffffffffffffffffffffffffffffffffffffff1690602001909291905050506101f5565b604051808215151515815260200191505060405180910390f35b3480156100f157600080fd5b5061011060048036038101908080359060200190929190505050610215565b6040518082815260200191505060405180910390f35b34801561013257600080fd5b5061013b6103ec565b604051808273ffffffffffffffffffffffffffffffffffffffff1673ffffffffffffffffffffffffffffffffffffffff16815260200191505060405180910390f35b34801561018957600080fd5b50610192610412565b6040518082815260200191505060405180910390f35b6101b0610458565b6040518082815260200191505060405180910390f35b3480156101d257600080fd5b506101db610555565b604051808215151515815260200191505060405180910390f35b60016020528060005260406000206000915054906101000a900460ff1681565b6000816000803373ffffffffffffffffffffffffffffffffffffffff1673ffffffffffffffffffffffffffffffffffffffff16815260200190815260200160002054101561026257600080fd5b3373ffffffffffffffffffffffffffffffffffffffff166108fc839081150290604051600060405180830381858888f193505050501580156102a8573d6000803e3d6000fd5b50816000803373ffffffffffffffffffffffffffffffffffffffff1673ffffffffffffffffffffffffffffffffffffffff168152602001908152602001600020600082825403925050819055507ff9226daf630542048a23086c6af599511aac100ec8f532793cc9697d061bed7e33836000803373ffffffffffffffffffffffffffffffffffffffff1673ffffffffffffffffffffffffffffffffffffffff16815260200190815260200160002054604051808473ffffffffffffffffffffffffffffffffffffffff1673ffffffffffffffffffffffffffffffffffffffff168152602001838152602001828152602001935050505060405180910390a16000803373ffffffffffffffffffffffffffffffffffffffff1673ffffffffffffffffffffffffffffffffffffffff168152602001908152602001600020549050919050565b600260009054906101000a900473ffffffffffffffffffffffffffffffffffffffff1681565b60008060003373ffffffffffffffffffffffffffffffffffffffff1673ffffffffffffffffffffffffffffffffffffffff16815260200190815260200160002054905090565b6000346000803373ffffffffffffffffffffffffffffffffffffffff1673ffffffffffffffffffffffffffffffffffffffff168152602001908152602001600020600082825401925050819055507fa8126f7572bb1fdeae5b5aa9ec126438b91f658a07873f009d041ae690f3a1933334604051808373ffffffffffffffffffffffffffffffffffffffff1673ffffffffffffffffffffffffffffffffffffffff1681526020018281526020019250505060405180910390a16000803373ffffffffffffffffffffffffffffffffffffffff1673ffffffffffffffffffffffffffffffffffffffff16815260200190815260200160002054905090565b600060018060003373ffffffffffffffffffffffffffffffffffffffff1673ffffffffffffffffffffffffffffffffffffffff16815260200190815260200160002060006101000a81548160ff0219169083151502179055507f990c442e6adb818b8fa7db3cf1023decd07f7b66e5306928c7ed527d974192bb33604051808273ffffffffffffffffffffffffffffffffffffffff1673ffffffffffffffffffffffffffffffffffffffff16815260200191505060405180910390a1600160003373ffffffffffffffffffffffffffffffffffffffff1673ffffffffffffffffffffffffffffffffffffffff16815260200190815260200160002060009054906101000a900460ff169050905600a165627a7a7230582060443e7ce1a06866097527e1a40ea1cb3c7f3e193b858a0a5ddca02d79a791790029",
  "source": "pragma solidity ^0.4.13;\ncontract SimpleBank {\n\n    mapping (address => uint) private balances;\n    \n    mapping (address => bool) public enrolled;\n\n    address public owner;\n\n    event LogEnrolled(address accountAddress);\n    event LogDepositMade(address accountAddress, uint amount);\n    event LogWithdrawal(address accountAddress, uint withdrawalAmount, uint newBalance);\n\n    constructor() public {\n        owner = msg.sender;\n    }\n\n    function enroll() public returns (bool){\n\n        enrolled[msg.sender] = true;\n        \n        emit LogEnrolled(msg.sender);\n\n        return enrolled[msg.sender];\n    }\n\n    function deposit() public payable returns (uint) {\n\n        balances[msg.sender] += msg.value;\n        \n        emit LogDepositMade(msg.sender, msg.value);\n        \n        return balances[msg.sender];\n    }\n\n    function withdraw(uint256 withdrawalAmount) public returns (uint remainingBal) {\n\n        if( balances[msg.sender] < withdrawalAmount ) { revert(); }\n\n        msg.sender.transfer(withdrawalAmount);\n\n        balances[msg.sender] -= withdrawalAmount;\n\n        emit LogWithdrawal(msg.sender, withdrawalAmount, balances[msg.sender]);\n\n        return balances[msg.sender];\n    }\n\n\n    function balance() public constant returns (uint) {\n        return balances[msg.sender];\n    }\n\n\n    function() public {\n        revert();\n    }\n}\n",
  "sourcePath": "/Users/serknight/code/eth/simple_bank/contracts/SimpleBank.sol",
  "compiler": {
    "name": "solc",
    "version": "0.4.24+commit.e67f0147.Emscripten.clang"
  },
  "schemaVersion": "2.0.0",
  "updatedAt": "2018-07-29T02:06:15.300Z"
}